:100000000C946B000C9493000C9493000C9454107B
:100010000C9454100C9454100C9493000C94930072
:100020000C9493000C94E20F0C9493000C949300A6
:100030000C9493000C9493000C9493000C949300F4
:100040000C9453090C9493000C94F4070C94CE0771
:100050000C9493000C9493000C9493000C949300D4
:100060000C9493000C949300FA0EC30DAE0DD10DB9
:10007000CB0DC70D6A0D9A0D00000000240027006B
:100080002A0000000008000201000003040700002D
:1000900000000000000000000000250028002B00E8
:1000A00000000000230026002900040404040404C6
:1000B0000404020202020202030303030303010217
:1000C00004081020408001020408102001020408E6
:1000D0001020D116BF1611241FBECFEFD8E0DEBF0F
:1000E000CDBF12E0A0E0B1E0EEE4FCE302C0059079
:1000F0000D92AE3EB107D9F724E0AEEEB2E001C0FA
:100100001D92A734B207E1F710E0CAE6D0E004C0C0
:100110002197FE010E94A617C936D107C9F70E9490
:1001200085150C941A1E0C940000FC012481358165
:10013000232B31F421E061157105A1F0FB0108C00A
:10014000FC01808191816115710531F421E0FC0190
:100150008081882339F005C00E94EB1A21E0892BA9
:1001600009F020E0822F0895EF92FF920F931F93E2
:10017000CF93DF9300D0CDB7DEB78C0169831A82AD
:10018000FC01E480F580FFEFEF1AFF0AB7010E943F
:100190004507882381F0F801208131818481958190
:1001A000BE016F5F7F4F820F931F0E94F41AF80108
:1001B000F582E48281E00F900F90DF91CF911F9143
:1001C0000F91FF90EF900895EF92FF920F931F937E
:1001D000CF93DF93EC017B018A01BA010E944507AE
:1001E000811104C0CE010E946C0707C01D830C83DF
:1001F000B701888199810E94F41ACE01DF91CF91D5
:100200001F910F91FF90EF900895CF93DF93EC0132
:100210006115710559F0FB0101900020E9F7319754
:10022000AF01461B570B0E94E40002C00E946C07FE
:10023000CE01DF91CF9108954F925F926F927F929E
:100240008F929F92AF92BF92CF92DF92EF92FF92E6
:100250000F931F93CF93DF93CDB7DEB7C45CD1402C
:100260000FB6F894DEBF0FBECDBFFE01EF52FF4FB9
:100270009F01285F3F4F3383228328EC30E0358392
:100280002483178216822AE131E031832083DC0146
:100290002D913C912115310511F422E732E0D9016D
:1002A0009C91992311F0119601C0D9018C91811173
:1002B0001196FA83E983BC83AB839D838E83F88791
:1002C000EF838AE08987FE0131967F01CF010E948A
:1002D000650F6C01DC018D919C91892B39F466E5E9
:1002E00071E082E691E00E94E41067C467E671E085
:1002F000F601828193810E949D09009709F45AC0FA
:100300005C01F4E0AF0EB11CC5010E940A0F00971A
:1003100011F0BC0151C08E010F551E4F62E772E013
:10032000C8010E949D071C821B8282E191E09A8392
:1003300089831E830D83C155DE4FF982E882CF5A2F
:10034000D140CF54DE4F19821882C15BD140BE012B
:1003500061557E4FC5010E944C0DD8018D919C9135
:100360001197C554DE4F99838883CB5BD140129699
:100370008D919C911397C354DE4F99838883CD5BF5
:10038000D14014968D919C911597C154DE4F99835D
:100390008883CF5BD14011961C921E9213961C92BB
:1003A0001E92129715961C921E921497C8010E94D5
:1003B0007E0707C062E772E0CE0185549E4F0E941F
:1003C0009D076BE671E0F601828193810E949D0991
:1003D000009729F004960E940A0F4C0102C0812C5C
:1003E000912C62E772E0CE018B549E4F0E949D07D4
:1003F0006FE671E0D60112968D919C9113970E9441
:100400009D09009749F0FC01248135812730310591
:1004100019F40681178103C00E942E0F8C0163E737
:1004200071E0CE0185549E4F0E949500882329F0EB
:1004300060910001709101010DC066E871E0CE018C
:1004400085549E4F0E949500882331F060910201EF
:1004500070910301C401A0C364E971E0CE01855429
:100460009E4F0E949500882321F093E0692E712C05
:1004700002C0612C712C65EA71E0CE0185549E4F5B
:100480000E949500882319F16FE671E0C6010E9471
:100490000F0D8823C9F06DEA71E0C8010E940F0DAD
:1004A000882339F06DEA71E0C8010E94C6095C0139
:1004B00002C0A12CB12C61EB71E0C8010E94040DB7
:1004C00084E0682E712C05C0B4E06B2E712CA12C39
:1004D000B12C66EB71E0CE0185549E4F0E949500D1
:1004E0008823E1F06FE671E0C6010E940F0D8823BA
:1004F00091F06DEA71E0C8010E940F0D882331F080
:100500006DEA71E0C8010E94C6095C0161EB71E00F
:10051000C8010E94040DA5E06A2E712C6BEB71E0FE
:10052000CE0185549E4F0E949500882319F0F6E075
:100530006F2E712C60EC71E0CE0185549E4F0E94AD
:1005400095008823D9F06FE671E0C6010E940F0D77
:10055000882389F065EC71E0D80112968D919C9109
:1005600013970E949D09892B31F065EC71E0C80159
:100570000E94C6095C01E7E06E2E712C6BEC71E005
:10058000CE0185549E4F0E9495008823C9F06FE6E6
:1005900071E0C6010E940F0D882379F065EC71E0CF
:1005A000F801828193810E949D09892B31F065ECCD
:1005B00071E0C8010E94C6095C0178E0672E712CC9
:1005C00061ED71E0CE0185549E4F0E949500882315
:1005D00061F16FE671E0C6010E940F0D882311F1F1
:1005E0006CED71E0C8010E94040D882331F06CEDC0
:1005F00071E0C8010E94C6095C0161EE71E0D8019A
:1006000012968D919C9113970E949D09892B51F010
:1006100061EE71E0C8010E94C6092C016BE0662EF4
:10062000712C05C05BE0652E712C412C512C67EEBE
:1006300071E0CE0185549E4F0E9495008823E1F021
:100640006FE671E0C6010E940F0D882391F068EFFC
:1006500071E0C8010E94040D882359F068EF71E031
:10066000C8010E94B909BC01CE018B549E4F0E9463
:1006700005014CE0642E712C6DEF71E0CE018554C4
:100680009E4F0E9495008823E1F06FE671E0C6015D
:100690000E940F0D882391F062E172E0C8010E9470
:1006A000040D882359F062E172E0C8010E94B90983
:1006B000BC01CE018B549E4F0E9405013DE0632E8C
:1006C000712C67E172E0CE0185549E4F0E94950027
:1006D0008823E1F06FE671E0C6010E940F0D8823C8
:1006E00009F467C26DEA71E0C8010E940F0D88230A
:1006F00009F45FC26DEA71E0C8010E94B909BC014A
:10070000CE018B549E4F0E94050153C261147104A7
:1007100009F43EC2BE016B547E4FCE0181559E4FFF
:100720000E94830770922204609221049092240414
:1007300080922304B0922604A092250450922804AB
:1007400040922704C155DE4F68817981CF5AD1404C
:100750006115710559F0CD54DE4F48815981C35B55
:10076000D14089E294E00E94E40004C089E294E070
:100770000E946C078091210490912204CF55DE4F96
:1007800099838883C15AD140809123049091240495
:10079000CD55DE4F99838883C35AD140809125047B
:1007A00090912604CB55DE4F99838883C55AD1405A
:1007B0008091270490912804C955DE4F998388833E
:1007C000C75AD14069E274E081EA91E08C0F9D1F25
:1007D00008960E948307CF55DE4F88819981C15AC0
:1007E000D140181619060CF0C6C1039709F0A6C02F
:1007F00061E08091EE020E94260864EF71E080E0E3
:1008000090E00E940D098091F0028E3008F08E5029
:100810008770806480937C0080917A0080648093EC
:100820007A0080917A0086FDFCCFA09178008091BB
:100830007900B0E0B82B2CE030E00E94AC172FEF2D
:1008400033E040E050E00E94AA1DCA01B9010E94B5
:100850005B1C0E94A6189B01AC012850310941097C
:100860005109A4E6B0E00E94C91D24E030E040E058
:1008700050E00E94AA1DCA01B9010E945B1C4B01F5
:100880005C0160E08091EE020E942608CD55DE4FAB
:10089000C880D980C35AD140CE0109969C838B83EE
:1008A00088EC90E09E838D8318861F828AE191E018
:1008B0009A838983C7010E944F0F8C01A6016BE6C2
:1008C00071E00E94400A6CE272E0F801828193813B
:1008D0000E949D09FC01892B51F4C8010E941D0A48
:1008E000FC01892B61F08CE292E0938382838AE0A1
:1008F00090E09583848386829782A086B1868DE579
:1009000093E0CF53DE4F99838883C15CD140CD53B0
:10091000DE4F19821882C35CD140BE016F537E4FF7
:10092000C8010E941A0D6BE38DE593E00E94B207A7
:1009300060E372E08DE593E00E94B907CF55DE4F8A
:1009400088819981C15AD1400497E1F4A09125048E
:10095000B09126042FEF30E00E94AC1724E630E07F
:1009600040E050E00E94AA1DB901C9010E94241470
:1009700063E372E0CD55DE4F88819981C35AD1403F
:100980000E94E410CF55DE4F88819981C15AD14031
:100990000597E1F4A0912504B09126042FEF30E0F3
:1009A0000E94AC1724E630E040E050E00E94AA1D0F
:1009B000B901C9010E94241463E372E0CD55DE4FF2
:1009C00088819981C35AD1400E94E410CF55DE4FEF
:1009D00088819981C15AD140079781F46FEF70E007
:1009E00081E09FEF0E94241463E372E0CD55DE4F57
:1009F00088819981C35AD1400E94E410CF55DE4FBF
:100A000088819981C15AD140089781F461E07FEFD4
:100A10008FEF90E00E94241463E372E0CD55DE4F27
:100A200088819981C35AD1400E94E410CF55DE4F8E
:100A300088819981C15AD140069781F460E070E0C5
:100A400080E090E00E94241463E372E0CD55DE4F15
:100A500088819981C35AD1400E94E410CF55DE4F5E
:100A600088819981C15AD1400B9771F50091250475
:100A700010912604A0912704B09128042FEF30E0B4
:100A80000E94AC1724E6822E912CA12CB12CA5013A
:100A900094010E94AA1D29013A012FEF30E0D801EC
:100AA0000E94AC17A50194010E94AA1DB201C901C0
:100AB0000E94241463E372E0CD55DE4F8881998152
:100AC000C35AD1400E94E410CF55DE4F88819981EE
:100AD000C15AD1400C97A9F469E274E0C7010E94A1
:100AE0008307C7010E949113C7010E947E0763E339
:100AF00072E0CD55DE4F88819981C35AD1400E9462
:100B0000E410CF55DE4F88819981C15AD1400D97AD
:100B1000A9F469E274E0C7010E948307C7010E943B
:100B20004413C7010E947E0763E372E0CD55DE4F98
:100B300088819981C35AD1400E94E410CF55DE4F7D
:100B400088819981C15AD1400E97A9F469E274E075
:100B5000C7010E948307C7010E944D12C7010E946E
:100B60007E0763E372E0CD55DE4F88819981C35AD9
:100B7000D1400E94E41081EA91E08C0F9D1F0896FD
:100B80000E947E07CE0181559E4F0E947E0706C0BF
:100B900066E372E082E691E00E94E410CE018B549D
:100BA0009E4F0E947E07CE0185549E4F0E947E0775
:100BB00004C08EE0682E712CADCDCC53DE4F0FB645
:100BC000F894DEBF0FBECDBFDF91CF911F910F9183
:100BD000FF90EF90DF90CF90BF90AF909F908F905D
:100BE0007F906F905F904F900895CF93DF9300D0E8
:100BF00000D000D0CDB7DEB78B33A9F469E174E043
:100C0000CE0101960E948307CE0101960E941C012D
:100C1000CE0101960E947E0762E772E089E194E0CE
:100C20000E94050107C0803229F0682F89E194E015
:100C30000E94B40026960FB6F894DEBF0FBECDBF5B
:100C4000DF91CF910895CF92DF92EF92FF920F93B1
:100C50001F93CF93DF936C017A018B01C0E0D0E04A
:100C6000CE15DF0589F0D8016D918D01D601ED918A
:100C7000FC910190F081E02DC6010995892B11F4BA
:100C80007E0102C02196ECCFC701DF91CF911F9169
:100C90000F91FF90EF90DF90CF900895FC01918D20
:100CA000828D981761F0828DDF01A80FB11D5D96CE
:100CB0008C91928D9F5F9F73928F90E008958FEF3C
:100CC0009FEF0895FC01918D828D981731F0828DF0
:100CD000E80FF11D858D90E008958FEF9FEF089547
:100CE000FC01918D228D892F90E0805C9F4F821BAB
:100CF00091098F73992708958DE593E00E947006FE
:100D000021E0892B09F420E0822F0895FC01848DD5
:100D1000DF01A80FB11DA35ABF4F2C91848D90E025
:100D200001968F739927848FA689B7892C93A08900
:100D3000B1898C9180648C93938D848D981306C0B7
:100D40000288F389E02D80818F7D80830895EF9262
:100D5000FF920F931F93CF93DF93EC0181E0888F75
:100D60009B8D8C8D981305C0E889F989808185FD5C
:100D700024C0F62E0B8D10E00F5F1F4F0F7311274D
:100D8000E02E8C8DE8120CC00FB607FCFACFE88974
:100D9000F989808185FFF5CFCE010E948606F1CFCB
:100DA0008B8DFE01E80FF11DE35AFF4FF0820B8F90
:100DB000EA89FB898081806207C0EE89FF896083B0
:100DC000E889F98980818064808381E090E0DF9107
:100DD000CF911F910F91FF90EF900895CF93DF93E4
:100DE000EC01888D8823C9F0EA89FB89808185FD23
:100DF00005C0A889B9898C9186FD0FC00FB607FC84
:100E0000F5CF808185FFF2CFA889B9898C9185FFC4
:100E1000EDCFCE010E948606E7CFDF91CF910895F6
:100E20000E947C0681110C945E0C08953FB7F894E3
:100E30008091040390910503A0910603B0910703EC
:100E400026B5A89B05C02F3F19F00196A11DB11D25
:100E50003FBFBA2FA92F982F8827820F911DA11D60
:100E6000B11DBC01CD0142E0660F771F881F991F9D
:100E70004A95D1F708950E94DD1AFC01848195817D
:100E80000E94B40081E090E008950F931F93CF93E8
:100E9000DF93EC0188819981009729F02A813B81B9
:100EA0002617370788F48B016F5F7F4F0E94131A54
:100EB000009761F0998388831B830A832C813D818D
:100EC000232B11F4FC01108281E001C080E0DF914E
:100ED000CF911F910F910895CF93DF93EC018881FB
:100EE0009981009711F00E947B19198218821D8246
:100EF0001C821B821A82DF91CF910895FC018081B0
:100F000091810C947B19FB01DC0111961C921E92BD
:100F100013961C921E92129715961C921E9214976D
:100F20008617970749F0608171816115710521F07D
:100F3000448155810C94E4000895FC0111821082D3
:100F400013821282158214826115710551F0FB0122
:100F500001900020E9F73197AF01461B570B0C9425
:100F6000E4000895DC01ED91FC910190F081E02D09
:100F700009946115710579F0FB0101900020E9F7F2
:100F80003197AF01461B570BDC01ED91FC910280BC
:100F9000F381E02D099480E090E008951F920F9274
:100FA0000FB60F9211242F933F934F935F936F933C
:100FB0007F938F939F93AF93BF93EF93FF938DE5B1
:100FC00093E00E948606FF91EF91BF91AF919F91B0
:100FD0008F917F916F915F914F913F912F910F90E2
:100FE0000FBE0F901F9018951F920F920FB60F9281
:100FF00011242F938F939F93EF93FF93E0916D03B1
:10100000F0916E038081E0917303F091740382FD8F
:1010100012C09081809176038F5F8F732091770348
:10102000821751F0E0917603F0E0E35AFC4F958F80
:101030008093760301C08081FF91EF919F918F9102
:101040002F910F900FBE0F901F90189590E0FC010C
:10105000EE57FF4F3491FC01E254FF4F2491FC0105
:10106000E655FF4FE491EE2309F43BC0332339F1F9
:10107000333091F038F43130A9F0323001F584B5D5
:101080008F7D12C0373091F03830A1F03430B9F490
:10109000809180008F7D03C0809180008F77809346
:1010A00080000DC084B58F7784BD09C08091B000E9
:1010B0008F7703C08091B0008F7D8093B000F0E007
:1010C000EE0FFF1FEA56FF4FA591B4918FB7F8942A
:1010D000EC91611103C020952E2301C02E2B2C937F
:1010E0008FBF0895CF93DF9390E0FC01E254FF4F50
:1010F0002491FC01E655FF4F8491882361F190E033
:10110000880F991FFC01E858FF4FC591D491FC014D
:10111000EA56FF4FA591B491611109C09FB7F894A9
:101120008881209582238883EC912E230BC0623026
:1011300061F49FB7F8943881822F80958323888348
:10114000EC912E2B2C939FBF06C08FB7F894E881AB
:101150002E2B28838FBFDF91CF9108951F93CF93BC
:10116000DF93182FEB0161E00E947208209711F4C1
:1011700060E004C0CF3FD10539F461E0812FDF91F9
:10118000CF911F910C942608E12FF0E0EE57FF4F0E
:10119000E491E330F9F048F4E130B9F0E230A1F540
:1011A00084B5806284BDC8BD34C0E730E9F0E83062
:1011B00019F1E43049F580918000806280938000CD
:1011C000D0938B00C0938A0024C084B5806884BD0E
:1011D000C7BD1FC080918000806880938000D0933D
:1011E0008900C093880015C08091B000806880930A
:1011F000B000C093B3000DC08091B00080628093B6
:10120000B000C093B40005C0C038D1050CF0B5CF14
:10121000AFCFDF91CF911F9108958F929F92AF92A0
:10122000BF92CF92DF92EF92FF926B017C010E94FE
:1012300016074B015C01C114D104E104F104F1F083
:101240000E941607DC01CB0188199909AA09BB097C
:10125000883E9340A105B10570F321E0C21AD10880
:10126000E108F10888EE880E83E0981EA11CB11CED
:10127000C114D104E104F10419F7DDCFFF90EF9020
:10128000DF90CF90BF90AF909F908F9008952FB731
:10129000F894609100037091010380910203909192
:1012A00003032FBF08951F920F920FB60F921124C0
:1012B0002F933F938F939F93AF93BF93809100039E
:1012C00090910103A0910203B09103033091FF02BA
:1012D00023E0230F2D3720F40196A11DB11D05C079
:1012E00026E8230F0296A11DB11D2093FF028093D3
:1012F000000390930103A0930203B0930303809132
:10130000040390910503A0910603B0910703019691
:10131000A11DB11D8093040390930503A0930603C0
:10132000B0930703BF91AF919F918F913F912F9100
:101330000F900FBE0F901F9018950F931F93CF9390
:10134000DF93EC018B01209759F06A817B81C80102
:101350000E94EB1A892B39F00990D881C02DF3CF68
:1013600080E090E001C0CE01DF91CF911F910F91FD
:101370000895FC01828193810E949D09009719F0D4
:1013800004960C940A0F80E090E00895CF93DF93C9
:10139000FC01828193810E949D09FC01892B09F443
:1013A00047C0848195818330910534F48130910563
:1013B000DCF4892B99F12BC08530910584F00597D9
:1013C00031F586819781A085B1859C01AD016627A5
:1013D0007727CB01621B730B840B950B27C06681AB
:1013E00077818085918522C0C681D7812097B1F011
:1013F000BE018FE592E00E94EB1A892B99F04AE03A
:1014000050E060E070E0CE010E94FB1A0FC06681E0
:101410007781808591850E94A61808C060E070E001
:10142000CB0104C061E070E080E090E0CB0102C03D
:1014300080E090E0DF91CF910895CF93DF93EC01AE
:10144000688179818AE090E00E94400F009729F03E
:10145000FC011182108215821482EA81FB8130978F
:1014600051F0208131812115310511F0F901F9CFB9
:101470009183808302C09B838A83DF91CF910895FB
:10148000EF92FF920F931F93CF93DF938C01EB01A9
:101490007A01FC01828193810E949D09FC01892BC4
:1014A00041F4C8010E941D0AFC01892B51F0D3832D
:1014B000C28382E090E095838483F782E68281E0B4
:1014C00001C080E0DF91CF911F910F91FF90EF90CD
:1014D0000895FC0183818283A081B1818C9188234E
:1014E00019F01196B183A08383830895CF93DF937E
:1014F000EC018A818D3051F024F48950823080F5DE
:1015000005C0803219F08F3229F02AC0CE010E9426
:10151000690AEFCF8B818A3219F08F32A9F020C08F
:10152000CE010E94690ACE010E94690A8A8188233D
:10153000B9F08A32C1F7CE010E94690A8A818F32DE
:10154000A9F709C08A3039F0CE010E94690A8A8160
:101550008111F8CF05C0CE01DF91CF910C94690ABB
:10156000DF91CF9108950F931F93CF93DF931F9235
:10157000CDB7DEB78C0169830E94760AF8018281BB
:101580006981861308C0C8010E94690AC8010E94C7
:10159000760A81E001C080E00F90DF91CF911F912A
:1015A0000F910895FC0126813781620F731F84819A
:1015B00095818617970738F08281938177836683B8
:1015C000820F931F089580E090E00895813051F0DC
:1015D000E8F0823061F0833079F46FE672E183E8FD
:1015E0009AE308956DEC7CEC8CEC9DE308956AE041
:1015F00077ED83E29CE3089584500E94E60A27E198
:1016000037EB41ED58E30E94BA1C089560E070E0AA
:1016100080E89FE30895CF93DF93EC01888199815F
:10162000DC01ED91FC910190F081E02D09952A817A
:101630003B81820F931F9B838A83DF91CF91089513
:1016400020915B0330915C032817390771F4909166
:10165000590380915A03981741F0E0915903F0E043
:10166000E45FFC4F808190E008958FEF9FEF089535
:1016700008951F93CF93DF93DC015C962D913C91ED
:101680005D972115310539F481E090E013969C9324
:101690008E9312973DC05196ED91FC9152975096C2
:1016A0009C915097892F80951FB75E964C915E97BD
:1016B00041FB772770F941FD6095F89440817723CD
:1016C00011F0492B01C048234083E9012197F1F72C
:1016D00048E0508160FF02C0592B01C0582350835D
:1016E000E9012197F1F76695415099F7772321F0A9
:1016F00090818923808303C08081982B90831FBFB2
:101700005C968D919C915D970197F1F721E030E017
:10171000C901DF91CF911F91089520915B03309112
:101720005C032817390771F480915A0320915903FB
:1017300090E0805C9F4F821B910960E470E00E9402
:101740009217089580E090E0089520915B03309116
:101750005C0328173907B9F49091590380915A0313
:10176000981789F0E0915903F0E0E45FFC4F808125
:101770002091590330E02F5F3F4F2F733327209381
:10178000590390E008958FEF9FEF0895CF93DF9373
:10179000EC01888199810E94B9072A813B81820FDF
:1017A000931F9B838A83DF91CF9108958F929F929D
:1017B000AF92BF92EF92FF920F931F93CF93DF935D
:1017C000CDB7DEB766970FB6F894DEBF0FBECDBFBC
:1017D0007C011E8A8E010A5E1F4F8AE0882E912CA2
:1017E000A12CB12CCB01BA01A50194010E94881D46
:1017F000942F852F605DF80162938F01A901692FF5
:10180000782F411551056105710561F7BF01C701C9
:101810000E94C60B66960FB6F894DEBF0FBECDBF12
:10182000DF91CF911F910F91FF90EF90BF90AF90FC
:101830009F908F900895FF920F931F93CF93DF9304
:101840006115710549F463E772E0DF91CF911F9153
:101850000F91FF900C94C60B8B01EC0162E2CE015C
:101860000E940B0BF80161918F01662351F0E4E6B1
:10187000F2E0F080FF2099F39181961759F03296AB
:10188000F8CF62E2CE01DF91CF911F910F91FF90CF
:101890000C940B0B6CE5CE010E940B0B6F2DDFCF70
:1018A0008AEF93E00E948D0B1816190634F48AEF24
:1018B00093E00E94A50B0C94F50508958DE593E047
:1018C0000E9470061816190634F48DE593E00E9404
:1018D0004E060C94F5050895AF92BF92CF92DF9219
:1018E000EF92FF920F931F93CF93DF937C01FC0144
:1018F000C681D781CA80DB808E819F81C80ED91EA8
:1019000014815701F2E0AF0EB11C173249F11232C7
:1019100039F180ED810F8A3060F0812F8F7D815405
:101920008A3138F01B3229F083ED810F823008F0C4
:101930004AC0C5010E94690A2E813F81C9010196F2
:101940004C815D814817590740F04A815B81FA015B
:10195000E20FF31F9F838E831083F7011481D9CF89
:10196000C5010E94690AF7010481002361F1C501E4
:101970000E94690A011739F10C3591F4F7010481CD
:10198000E8E6F2E08081882331F0801302C0018113
:1019900002C03296F7CF0023B1F0C5010E94690A58
:1019A0008E819F819C012F5F3F4F4C815D8142174B
:1019B0005307C8F24A815B81FA01E80FF91F3F83A0
:1019C0002E830083D0CF8E819F819C012F5F3F4F5C
:1019D0004C815D814217530748F04A815B81FA01CF
:1019E000E80FF91F3F832E83108202C0C12CD12C37
:1019F000C601DF91CF911F910F91FF90EF90DF9083
:101A0000CF90BF90AF900895FC01828193810E9496
:101A10009D0921E0892B09F420E0822F0895FC0123
:101A2000828193810E949D0921E0892B09F420E0A5
:101A3000822F08950F931F93CF93DF938C01EB01B7
:101A40006BE7CE010E940B0BF80102811381011597
:101A50001105A9F0F80162817381CE010E941B0C6F
:101A60006AE3CE010E940B0BBE01C80104960E94DE
:101A70004C0DF801008111810115110541F46DE74C
:101A8000CE01DF91CF911F910F910C940B0B6CE263
:101A9000CE010E940B0BDBCF4F925F926F927F9231
:101AA0009F92AF92BF92CF92DF92EF92FF920F93ED
:101AB0001F93CF93DF938C01EB01FC01A080B180D9
:101AC000F8E0AF16B10408F07BC0F501EC5CFF4F05
:101AD0000C94A617FC01028113816BE5CE010E94D4
:101AE0000B0BF801028113810115110559F0BE019C
:101AF000C80102960E944C0DF80100811181011568
:101B0000110599F46DE5CE01DF91CF911F910F91F1
:101B1000FF90EF90DF90CF90BF90AF909F907F901D
:101B20006F905F904F900C940B0B6CE2CE010E9473
:101B30000B0BDACFFC0182819381DF91CF911F9152
:101B40000F91FF90EF90DF90CF90BF90AF909F905C
:101B50007F906F905F904F900C941A0DFC01628102
:101B60007381CE01DF91CF911F910F91FF90EF9084
:101B7000DF90CF90BF90AF909F907F906F905F90DD
:101B80004F900C941B0CFC016281738157C06DE275
:101B9000CE010E940B0BF801428153816481758153
:101BA00017C1FC0182819381A481B581892B8A2B85
:101BB0008B2B19F468E772E041C06FE572E03EC01C
:101BC00088EF982E9A0CF801C280D380E480F580CB
:101BD000A7019601C701B6010E94E118882319F0F8
:101BE0006EE772E02BC020E030E0A901C701B6012A
:101BF0000E94541C87FF08C06DE2CE010E940B0BAF
:101C0000F7FAF094F7F8F09426013701E89477F8A2
:101C10002FEF3FEF4FE75FE7C301B2010E94E118EA
:101C200081111EC02FEF3FEF4FE75FE7C301B20105
:101C30000E94541C1816A4F462E872E0CE01DF91F1
:101C4000CF911F910F91FF90EF90DF90CF90BF90B9
:101C5000AF909F907F906F905F904F900C94C60BC9
:101C600020E030E04AE754E4C701B6010E94DC18E6
:101C700000E010E018160CF12FE632E143E85AE3D9
:101C8000C701B6010E94541C87FF37C016C020E070
:101C900030E040E85FE3C701B6010E94541C87FFB3
:101CA00015C00150110920E030E040E251E4C701C5
:101CB000B6010E94BA1C6B017C0120E030E0A90152
:101CC000C701B6010E94541C8111E1CF20E030E031
:101CD00040E251E4C701B6010E94DC1818166CF40A
:101CE0000F5F1F4F20E030E040E251E4C701B60132
:101CF0000E9434186B017C01E9CF892D0E94E60A0D
:101D000020E030E040E05FE30E94BA1C9B01AC01A0
:101D1000C701B6010E94C8172B013C010E94AD18F3
:101D20006B017C010E94591C9B01AC01C301B201F3
:101D30000E94C7172B013C01B701A601CE010E94EA
:101D4000D60B992021F06EE2CE010E940B0BF8E039
:101D5000AF1619F120E030E040E251E4C301B201D6
:101D60000E94BA1C2B013C010E94A618F62E062EDA
:101D7000000C770B880B990B0E945B1C9B01AC013C
:101D8000C301B2010E94C7172B013C0160E36F0D34
:101D9000CE010E940B0BAA94DACF17FF0EC06BE89E
:101DA00072E0CE010E94C60B44275527401B510B01
:101DB000052E000C660B770B0BC001151105D1F039
:101DC00065E6CE010E940B0BA801110F660B770B85
:101DD000CE01DF91CF911F910F91FF90EF90DF9097
:101DE000CF90BF90AF909F907F906F905F904F90FB
:101DF0000C94D60BDF91CF911F910F91FF90EF9034
:101E0000DF90CF90BF90AF909F907F906F905F904A
:101E10004F9008950F931F93CF93DF938C01FC0194
:101E2000C081D181C130D10559F4628173816115BE
:101E3000710531F083E792E00E94EB1A892B39F0AB
:101E40002197229720F4F8018281938102C080E0DB
:101E500090E0DF91CF911F910F91089580915003F1
:101E600081110BC010924D0310924C0310924F033E
:101E700010924E0381E0809350038CE493E0089528
:101E8000DB01109749F0ED91FC9111970190F081E1
:101E9000E02DBC01CD01099480E090E00895CF933E
:101EA000DF93EC01BC0184E090E00E94400F0097BA
:101EB00041F0FC01D183C08313821282DF91CF9164
:101EC0000895DF91CF910C942E0F9F92AF92BF9205
:101ED000CF92DF92EF92FF920F931F93CF93DF93F6
:101EE00000D000D000D0CDB7DEB7D82EC92E082F35
:101EF000192FF801819191918F010E944F0F7C0160
:101F00006BE7C8010E94B30A882309F445C06DE756
:101F1000C8010E94B30A811142C086E0982E8D2D1F
:101F20009C2D0E946C0C5C01892BB1F16AE3C80105
:101F30000E94B30A882381F11A821982BE016F5F61
:101F40007F4F8D2D9C2D0E948714882329F1B50188
:101F5000F701828193810E949D09009741F4C70196
:101F60000E941D0A0097C1F0FC01B382A282FE010B
:101F70003196DC011496892D01900D928A95E1F736
:101F80006DE7C8010E94B30A811109C06CE2C80163
:101F90000E94B30A8111C3CF0E942E0F01C0C70156
:101FA00026960FB6F894DEBF0FBECDBFDF91CF915E
:101FB0001F910F91FF90EF90DF90CF90BF90AF9067
:101FC0009F9008951F920F920FB60F9211242F9396
:101FD0003F934F935F936F937F938F939F93AF93B1
:101FE000BF93EF93FF938091F8029091F902809351
:101FF000B2008091FB029091FC02A091FD02B09191
:10200000FE020196A11DB11D8093FB029093FC027C
:10201000A093FD02B093FE028091FB029091FC021E
:10202000A091FD02B091FE024091F4025091F502A0
:102030006091F6027091F70284179507A607B7071B
:1020400010F18091FA0281111EC081E08093FA02A2
:102050008091FB029091FC02A091FD02B091FE02E2
:10206000841B950BA60BB70B8093FB029093FC028D
:10207000A093FD02B093FE02E091F202F091F30210
:1020800009951092FA02FF91EF91BF91AF919F9144
:102090008F917F916F915F914F913F912F910F9011
:1020A0000FBE0F901F9018951F920F920FB60F92B0
:1020B00011242F933F934F935F936F937F938F934D
:1020C0009F93AF93BF93EF93FF93E0915B03F091E6
:1020D0005C03309709F451C0968DA685B785858538
:1020E00091FF04C09C91892329F447C09C918923C6
:1020F00009F043C0A389B4899C918589809589237F
:102100008C93868997890197F1F7608D718DA685EB
:10211000B785558538E020E0CB010197F1F7822F94
:1021200090E095958795282F4C91452309F02068DC
:10213000315091F7868D81FD209580915A0390E072
:1021400001968F73992730915903381749F0A09160
:102150005A03B0E0A45FBC4F2C9380935A0303C092
:10216000868D8160868F828D938D0197F1F7A3898B
:10217000B4899C918589892B8C93FF91EF91BF91B4
:10218000AF919F918F917F916F915F914F913F910F
:102190002F910F900FBE0F901F901895E0915B0349
:1021A000F0915C03E817F90769F4A389B4899C915D
:1021B0008589809589238C9310925C0310925B0330
:1021C00081E0089580E00895CF92DF92EF92FF9230
:1021D0000F931F93CF93DF93CDB7DEB7C45DD109C3
:1021E0000FB6F894DEBF0FBECDBF6C017B01CE01F0
:1021F00009969C838B8388EC90E09E838D83188660
:102200001F828AE191E09A838983CE0101960E9420
:102210004F0F8C01A6016BE671E00E94400AA701F6
:102220006CE272E0C8010E94400A8DE593E0CF5253
:10223000DF4F99838883C15DD040CD52DF4F198233
:102240001882C35DD040BE016F527F4FC8010E940B
:102250001A0D6BE38DE593E00E94B20760E372E034
:102260008DE593E00E94B907CC52DF4F0FB6F8948A
:10227000DEBF0FBECDBFDF91CF911F910F91FF90B9
:10228000EF90DF90CF9008958F929F92AF92BF9280
:102290000F931F93CF93DF93CDB7DEB7A1970FB600
:1022A000F894DEBF0FBECDBF19A2423008F44AE059
:1022B0008E010F5D1F4F842E912CA12CB12CA501F6
:1022C00094010E94881DE62FB901CA01015011092D
:1022D000EA3014F4E05D01C0E95CD801EC93232BF3
:1022E000242B252B61F7B8018DE593E00E94B907F7
:1022F000A1960FB6F894DEBF0FBECDBFDF91CF9190
:102300001F910F91BF90AF909F908F9008959B0168
:10231000AC01109215041092140410921304109240
:102320001204109211041092100460E079E08DE321
:1023300090E00E94AA1DF9012430310518F0C9016E
:10234000039702C081E090E09093170480931604F5
:1023500090910604963108F075C0B901769567959D
:102360006431710518F06351710902C061E070E0D9
:102370007093110460931004369720F0B9016550F2
:10238000710902C061E070E070931304609312045D
:10239000B901660F771F260F371F3695279536959B
:1023A00027952D30310518F02C50310902C021E05D
:1023B00030E0309315042093140420916800983085
:1023C00050F031E09E3008F430E081E001C0880F29
:1023D0003A95EAF701C084E0822B80936800983038
:1023E00038F09E3040F0963148F020E030E008C0F0
:1023F0002DE630E005C02BE630E002C02CE630E0F0
:1024000030930E0420930D04983030F481E001C025
:10241000880F9A95EAF70EC0292F30E09E3018F405
:102420002850310902C02E50310981E001C0880FC7
:102430002A95EAF780930F0480911604909117046F
:102440000197F1F78091140490911504892B21F1E3
:1024500080915B0390915C0323E08A3F9207E1F057
:10246000009711F00E94CE10809118048E7F809307
:10247000180410925A03109259038AEF93E0909334
:102480005C0380935B03E0910D04F0910E04908156
:1024900080910F04892B80830895CF92DF92EF9271
:1024A000FF920F931F93CF93DF9300D000D000D003
:1024B000CDB7DEB78C0162E772E0CE0101960E94D3
:1024C0009D076EE872E0C8010E949500882319F00C
:1024D00063E972E046C065E972E0C8010E949500B8
:1024E000882319F06AE972E03CC06CE972E0C80127
:1024F0000E949500882319F06DE472E032C061EA11
:1025000072E0C8010E949500882319F06BED72E01B
:1025100028C066EA72E0C8010E949500882319F07D
:1025200061E572E01EC06CEA72E0C8010E9495008D
:10253000882319F06BEE72E014C062EB72E0C80100
:102540000E949500882319F068EB72E00AC06AEBDC
:1025500072E0C8010E949500882309F480C061ECF4
:1025600072E0CE0101960E94050161E0809158035E
:102570000E94260864E670E080E090E00E940D0969
:1025800060E0809158030E94260868EE73E080E0C6
:1025900090E00E940D0963EC72E08AEF93E00E94E4
:1025A000B90768EB7BE080E090E00E940D0966ECE3
:1025B00072E08AEF93E00E94B9074D815E816981E4
:1025C0007A818AEF93E00E94230668EB7BE080E04B
:1025D00090E00E940D0961E0809158030E94260856
:1025E00064E670E080E090E00E940D0960E0809178
:1025F00058030E9426088AEF93E00E94CE10F8014B
:1026000080819181009719F00E940C1C03C060E04A
:1026100070E0CB010E948711F801808191810097C1
:10262000A1F00E940C1C6B017C0197FF11C06DE2B0
:102630008DE593E00E94B20766277727CB016C19DE
:102640007D098E099F094AE006C0C12CD12C760174
:102650004AE0C701B6010E94441111E001C010E038
:10266000CE0101960E947E07812F26960FB6F89420
:10267000DEBF0FBECDBFDF91CF911F910F91FF90B5
:10268000EF90DF90CF900895CF93DF93EC0161E05E
:10269000809158030E94260864E670E080E090E094
:1026A0000E940D0960E0809158030E94260868EEA0
:1026B00073E080E090E00E940D0963EC72E08AEF25
:1026C00093E00E94B90768EB7BE080E090E00E9415
:1026D0000D096EEC72E08AEF93E00E94B9074C811D
:1026E0005D81688179818AEF93E00E94230668EB1F
:1026F0007BE080E090E00E940D0961E0809158034A
:102700000E94260864E670E080E090E00E940D09D7
:1027100060E0809158030E94260881E0DF91CF910C
:102720000895CF92DF92EF92FF92CF93DF93EC0167
:1027300061E0809158030E94260864E670E080E022
:1027400090E00E940D0960E0809158030E942608E5
:1027500068EE73E080E090E00E940D0965ED72E0A4
:102760008DE593E00E94B90763EC72E08AEF93E095
:102770000E94B9070E9447096B01770FEE08FF0816
:102780008AEF93E00E948D0B892BD1F30E944709B9
:10279000AB01BC014C195D096E097F0948385341F2
:1027A0006105710568F369ED72E08DE593E00E94C3
:1027B000B9076DED72E08AEF93E00E94B9074C8192
:1027C0005D81688179818AEF93E00E9423060E94EF
:1027D00047096B01770FEE08FF088AEF93E00E942C
:1027E0008D0B892BD1F30E944709DC01CB018C1999
:1027F0009D09AE09BF0988389341A105B10568F369
:1028000065EE72E08DE593E00E94B90761E080918A
:1028100058030E94260864E670E080E090E00E9481
:102820000D0969EE72E08DE593E00E94B90760E062
:10283000809158030E94260881E0DF91CF91FF909C
:10284000EF90DF90CF900895CF92DF92EF92FF92BA
:102850006C017B0197FD0CC061E080912F040E9408
:10286000260860E0809130040E942608B6010EC060
:1028700060E080912F040E94260861E0809130047E
:102880000E942608662777276C197D0980913104FC
:102890000E94AE08F7FC0CC061E0809132040E94F7
:1028A000260860E0809133040E942608B7010EC01C
:1028B00060E0809132040E94260861E08091330438
:1028C0000E942608662777276E197F0980913404B5
:1028D0000E94AE080D2C000CEE08FF08F7FE0EC09B
:1028E0006DE28DE593E00E94B20766277727CB0162
:1028F0006C197D098E099F094AE003C04AE0C701AF
:10290000B601FF90EF90DF90CF900C9444119F920E
:10291000AF92BF92CF92DF92EF92FF920F931F93ED
:10292000CF93DF9300D000D000D0CDB7DEB7FC014D
:102930009085992309F4D5C06B017F019150908750
:102940005F0182E0A80EB11CC5010E94760AF70162
:1029500084818B3521F08B3709F496C0A0C0F70134
:1029600000811181B80184E090E00E94400F00973F
:1029700039F0FC0111830083138212828C0111C093
:102980008091390481110BC01092360410923504E5
:10299000109238041092370481E08093390405E3E3
:1029A00014E06BE5C5010E94B30A882309F44CC00A
:1029B0006DE5C5010E94B30A811157C086E0982ECB
:1029C0001A821982BE016F5F7F4FC7010E94871470
:1029D0008823D1F1F8016081718188E090E00E9444
:1029E000400FDC01892B39F011961C921E92139630
:1029F0001C921E921297F801228133812115310514
:102A000051F0F90180819181009711F09C01F9CF7B
:102A1000B183A08303C0F801B383A2831097A1F010
:102A2000FE0131961296892D01900D928A95E1F75B
:102A30006DE5C5010E94B30A811117C06CE2C501A2
:102A40000E94B30A8111BCCF8091390481110BC05F
:102A50001092360410923504109238041092370404
:102A600081E08093390405E314E0F80180819181CD
:102A7000892B11F410E030C086E090E0F6019183DC
:102A800080831383028327C0C7010E94650FFC0166
:102A900020813181232B71F327E030E017C011E052
:102AA000873219F0823209F010E0C7010E946C0CE5
:102AB000009701F3112341F022E030E0F601318369
:102AC00020839383828308C021E030E0F6013183C4
:102AD00020839383828311E0F70180858F5F808755
:102AE00001C010E0812F26960FB6F894DEBF0FBE0E
:102AF000CDBFDF91CF911F910F91FF90EF90DF90AD
:102B0000CF90BF90AF909F900895789484B58260E5
:102B100084BD84B5816084BD85B5826085BD85B581
:102B2000816085BD80916E00816080936E001092FF
:102B3000810080918100826080938100809181007A
:102B4000816080938100809180008160809380000B
:102B50008091B10084608093B1008091B000816069
:102B60008093B00080917A00846080937A00809195
:102B70007A00826080937A0080917A0081608093ED
:102B80007A0080917A00806880937A001092C10068
:102B900080918100887F816080938100E0916D0346
:102BA000F0916E0382E08083E0916903F0916A0303
:102BB0001082E0916B03F0916C038FEC8083109294
:102BC0007503E0917103F0917203C6E0C083E09158
:102BD0006F03F0917003808180618083E0916F03C7
:102BE000F0917003808188608083E0916F03F091A1
:102BF0007003808180688083E0916F03F09170039F
:102C000080818F7D808384E08093580360E875E243
:102C100080E090E00E94871181E090E0A0E0B0E0C9
:102C20008093F4029093F502A093F602B093F7021A
:102C300080E59CE09093F3028093F2028091700013
:102C40008E7F809370008091B0008C7F8093B00065
:102C50008091B100877F8093B1008091B6008F7D15
:102C60008093B600809170008D7F8093700080917A
:102C7000B10084608093B1008091B1008C7F80931B
:102C8000B10006E010E01093F9020093F8021092F0
:102C9000FB021092FC021092FD021092FE021092B2
:102CA000FA028091F8029091F9028093B20080912B
:102CB000700081608093700061E084E00E9472087F
:102CC00061E084E00E94260863E572E08DE593E010
:102CD0000E94B907109209031092080310920B0387
:102CE00010920A038DE090E09093EF028093EE0241
:102CF0001093F1020093F00288E080932F04C093B8
:102D000030048AE08093310487E08093320485E0C8
:102D10008093330489E08093340461E088E00E946A
:102D2000720861E0809130040E94720861E0809135
:102D300031040E94720861E0809132040E9472089E
:102D400061E0809133040E94720861E08091340454
:102D50000E94720862EE7FEF8EE190E00E942414E0
:102D600064EF71E080E090E00E940D0960E070E0A7
:102D700080E090E00E9424140E941007FDCF8AE4B6
:102D800091E09093FB038093FA038AEF93E00E9413
:102D9000CE1089E294E00E947E0789E194E00C94D1
:102DA0007E07CF92DF92EF92FF9210926003109213
:102DB0005F0398EEC92E93E0D92EE12CF12CC0923E
:102DC0006103D0926203E0926303F092640382E3B2
:102DD00091E090935E0380935D0385EC90E0909387
:102DE0006A038093690384EC90E090936C03809372
:102DF0006B0380EC90E090936E0380936D0381EC05
:102E000090E09093700380936F0382EC90E0909336
:102E100072038093710386EC90E090937403809327
:102E20007303109276031092770310927803109236
:102E3000790362E772E089E194E00E949D0762E70E
:102E400072E089E294E00E949D071092FD031092C7
:102E5000FC03C092FE03D092FF03E0920004F092C4
:102E600001048AE491E09093FB038093FA031092AB
:102E70001104109210041092130410921204109274
:102E80001504109214041092170410921604609105
:102E900018046E7F6D7F609318046695617081E001
:102EA00068278BE00E94260861E08BE00E94720890
:102EB000E9ECF0E0E491E0930A04E5EBF0E0E49162
:102EC000F0E0EE0FFF1FEA56FF4F8591949190932B
:102ED0000C0480930B0460E08CE00E9472088091E7
:102EE000180481FD04C061E08CE00E9426088CE09B
:102EF00080930604EAECF0E0E491E0930704E6EB4B
:102F0000F0E0E491F0E0EE0FFF1FE056FF4F8591F7
:102F100094919093090480930804FF90EF90DF90C0
:102F2000CF90089597FB072E16F4009407D077FDF5
:102F300009D00E94B31707FC05D03EF49095819507
:102F40009F4F0895709561957F4F0895EE0FFF1F75
:102F50000590F491E02D09940E940B1EB7FF08958F
:102F6000821B930B0895AA1BBB1B51E107C0AA1F2C
:102F7000BB1FA617B70710F0A61BB70B881F991F1A
:102F80005A95A9F780959095BC01CD0108955058A8
:102F9000BB27AA270E94DF170C943E1D0E94301DFC
:102FA00038F00E94371D20F039F49F3F19F426F4C1
:102FB0000C942D1D0EF4E095E7FB0C94271DE92FD2
:102FC0000E944F1D58F3BA176207730784079507CD
:102FD00020F079F4A6F50C94711D0EF4E0950B2EFB
:102FE000BA2FA02D0B01B90190010C01CA01A0015B
:102FF0001124FF27591B99F0593F50F4503E68F1B6
:103000001A16F040A22F232F342F4427585FF3CFF6
:10301000469537952795A795F0405395C9F77EF4C7
:103020001F16BA0B620B730B840BBAF09150A1F010
:10303000FF0FBB1F661F771F881FC2F70EC0BA0F96
:10304000621F731F841F48F4879577956795B7951E
:10305000F7959E3F08F0B0CF9395880F08F0992719
:10306000EE0F9795879508950E9448180C943E1D81
:103070000E94371D58F00E94301D40F029F45F3F38
:1030800029F00C94271D51110C94721D0C942D1DC8
:103090000E944F1D68F39923B1F3552391F3951BBB
:1030A000550BBB27AA2762177307840738F09F5F69
:1030B0005F4F220F331F441FAA1FA9F335D00E2ED6
:1030C0003AF0E0E832D091505040E695001CCAF743
:1030D0002BD0FE2F29D0660F771F881FBB1F261706
:1030E00037074807AB07B0E809F0BB0B802DBF01DD
:1030F000FF2793585F4F3AF09E3F510578F00C94AC
:10310000271D0C94721D5F3FE4F3983ED4F386951F
:1031100077956795B795F7959F5FC9F7880F911DCC
:103120009695879597F90895E1E0660F771F881FB8
:10313000BB1F621773078407BA0720F0621B730B6B
:10314000840BBA0BEE1F88F7E09508950E94AD1826
:103150006894B1110C94721D08950E94571D88F057
:103160009F5798F0B92F9927B751B0F0E1F0660F4B
:10317000771F881F991F1AF0BA95C9F714C0B1308C
:1031800091F00E94711DB1E008950C94711D672F9C
:10319000782F8827B85F39F0B93FCCF386957795BB
:1031A0006795B395D9F73EF49095809570956195A4
:1031B0007F4F8F4F9F4F08950E94961C08F48FEF0A
:1031C00008950E94961C880B990B0895CF93DF9366
:1031D0008230910510F482E090E0E0914304F09198
:1031E000440420E030E0C0E0D0E0309711F14081AD
:1031F000518148175907C0F04817590761F4828177
:103200009381209719F09B838A832BC09093440469
:103210008093430426C02115310519F04217530746
:1032200018F49A01BE01DF01EF010280F381E02D65
:10323000DCCF2115310509F1281B390B243031056C
:1032400090F412968D919C9113976115710521F060
:10325000FB019383828304C09093440480934304CE
:10326000FD01329644C0FD01E20FF31F819391935B
:10327000225031092D933C933AC020914104309162
:103280004204232B41F42091060130910701309331
:10329000420420934104209104013091050121153D
:1032A000310541F42DB73EB7409108015091090115
:1032B000241B350BE0914104F0914204E217F3071F
:1032C000A0F42E1B3F0B2817390778F0AC014E5F96
:1032D0005F4F2417350748F04E0F5F1F509342048D
:1032E000409341048193919302C0E0E0F0E0CF016C
:1032F000DF91CF9108950F931F93CF93DF930097A2
:1033000009F48CC0FC0132971382128200914304AD
:10331000109144040115110581F420813181820F3F
:10332000931F20914104309142042817390779F501
:10333000F0934204E093410471C0D80140E050E0B2
:10334000AE17BF0750F412962D913C911397AD0123
:103350002115310509F1D901F3CF9D01DA0133833C
:10336000228360817181860F971F8217930769F40A
:10337000EC0128813981260F371F2E5F3F4F3183A3
:1033800020838A819B8193838283452B29F4F09348
:103390004404E093430442C01396FC93EE931297C7
:1033A000ED01499159919E01240F351FE217F30752
:1033B00071F480819181840F951F029611969C93E0
:1033C0008E938281938113969C938E931297E0E063
:1033D000F0E0D80112968D919C911397009719F007
:1033E000F8018C01F6CF8D919C9198012E5F3F4F93
:1033F000820F931F2091410430914204281739070E
:1034000069F4309729F4109244041092430402C0E6
:10341000138212821093420400934104DF91CF91F2
:103420001F910F910895A0E0B0E0E9E1FAE10C945A
:10343000D81DEC01009721F4CB010E94E618B8C01A
:10344000FC01E60FF71F9C0122503109E217F30738
:1034500008F4ACC0D9010D911C91119706171707FC
:10346000B0F00530110508F49FC0C8010497861715
:10347000970708F499C002501109061B170B019316
:1034800011936D937C93CF010E947B198DC05B01DA
:10349000A01AB10A4C01800E911EA0914304B09174
:1034A000440440E050E0E12CF12C109709F44AC0AC
:1034B000A815B905D1F56D907C901197630182E054
:1034C000C80ED11CCA14DB0480F1A3014A195B09A0
:1034D0006A0182E0C80ED11C1296BC901297139616
:1034E000AC91B5E0CB16D10440F0B282A3835183F6
:1034F0004083D9016D937C930AC00E5F1F4FC301B7
:10350000800F911FF90191838083EB2DFA2FE11435
:10351000F10431F0D7011396FC93EE93129744C057
:10352000F0934404E09343043FC08D919C91119724
:103530004817590708F4AC017D0112960D90BC9113
:10354000A02DB3CF80914104909142048815990534
:10355000E1F446175707C8F48091040190910501E2
:10356000009741F48DB79EB7409108015091090131
:10357000841B950BE817F907C8F4F0934204E09315
:103580004104F901718360830FC0CB010E94E618EA
:103590007C01009759F0A801BE010E94E21ACE01F9
:1035A0000E947B19C70104C0CE0102C080E090E0F8
:1035B000CDB7DEB7EEE00C94F41D81E090E0F89416
:1035C0000C941A1EFB01DC0102C001900D924150C7
:1035D0005040D8F70895FB01DC018D9101908019CE
:1035E0000110D9F3990B0895FB01DC0101900D92B4
:1035F0000020E1F70895A0E0B0E0E1E0FBE10C94E9
:10360000D41D5C016B017A016115710519F0FB0194
:1036100091838083E114F10429F0C7010297839715
:1036200008F0F1C0E5012196F5011081812F90E0AD
:103630000E94331C892B11F05E01F4CF1D3229F456
:103640002196F501118101E007C01B3221F4E5014B
:103650002296F501118100E0E114F10459F1F0E145
:10366000EF16F10461F41033E1F488818F7D883521
:1036700069F519812296026070E1E72EF12C88E04D
:10368000E816F10439F12CF4F2E0EF16F104C9F177
:103690002AC08AE0E816F10479F0E0E1EE16F104C0
:1036A00011F550E1E52EF12C812C912CA12C68E034
:1036B000B62E2CC01033C9F23AE0E32EF12C4CECBC
:1036C000842E982CA82C4CE0B42E20C010E3E114DA
:1036D000F104A9F698E0E92EF12C812C912CA12C73
:1036E00020E1B22E13C060E070E080E090E8970126
:1036F0000F2C000C440B550B0E94881D49015A01E8
:1037000005C0812C912CA12C80E4B82E60E020E033
:1037100030E0A90127010F2C000C660877081E0174
:10372000E0EDE10FEA3060F08FEB810F8A3110F4A9
:10373000E9EC05C08FE9810F8A3128F5E9EAE10F4C
:103740008E2F90E08E159F05F4F467FD18C0821649
:103750009306A406B50690F0C301B2010E94781D3D
:103760009B01AC012E0F311D411D511D2130310532
:103770004105F0E85F0710F461E001C06FEF2196AA
:10378000F1011081CCCF802F8170C114D10471F070
:10379000662329F02197F601D183C08307C001FF7A
:1037A00019C02297F601D183C08314C067FF12C0ED
:1037B000811105C02FEF3FEF4FEF5FE704C020E01E
:1037C00030E040E050E882E290E09093460480933D
:1037D000450416C0882341F05095409530952195B9
:1037E0003F4F4F4F5F4F0CC057FF0AC082E290E03F
:1037F00090934604809345042FEF3FEF4FEF5FE730
:10380000B901CA0104C060E070E080E090E0CDB78B
:10381000DEB7E2E10C94F01D1F93FC019927882785
:10382000BC01E89411911032E9F3193010F01E3008
:10383000C8F31B3251F01D3249F4689406C00E944F
:103840003C1C610F711D811D911D119110531A3087
:10385000B0F33EF490958095709561957F4F8F4FB2
:103860009F4F1F91089591110C94511C803219F0B3
:1038700089508550C8F70895592F482F372F262F84
:10388000660F771F881F991F660F771F881F991F64
:10389000620F731F841F951F660F771F881F991F64
:1038A00008959927882708950E94961C08F481E0BE
:1038B0000895E89409C097FB3EF490958095709523
:1038C00061957F4F8F4F9F4F9923A9F0F92F96E96C
:1038D000BB279395F695879577956795B795F111E1
:1038E000F8CFFAF4BB0F11F460FF1BC06F5F7F4F7E
:1038F0008F4F9F4F16C0882311F096E911C0772390
:1039000021F09EE8872F762F05C0662371F096E898
:10391000862F70E060E02AF09A95660F771F881F67
:10392000DAF7880F9695879597F90895990F00080B
:10393000550FAA0BE0E8FEEF16161706E807F90781
:10394000C0F012161306E407F50798F0621B730B1C
:10395000840B950B39F40A2661F0232B242B252B9D
:1039600021F408950A2609F4A140A6958FEF811D40
:10397000811D08950E94CD1C0C943E1D0E94301D97
:1039800038F00E94371D20F0952311F00C94271D6C
:103990000C942D1D11240C94721D0E944F1D70F368
:1039A000959FC1F3950F50E0551F629FF001729FE4
:1039B000BB27F00DB11D639FAA27F00DB11DAA1FF3
:1039C000649F6627B00DA11D661F829F2227B00D40
:1039D000A11D621F739FB00DA11D621F839FA00DCB
:1039E000611D221F749F3327A00D611D231F849F1B
:1039F000600D211D822F762F6A2F11249F57504072
:103A00009AF0F1F088234AF0EE0FFF1FBB1F661FEC
:103A1000771F881F91505040A9F79E3F510580F0B5
:103A20000C94271D0C94721D5F3FE4F3983ED4F371
:103A3000869577956795B795F795E7959F5FC1F759
:103A4000FE2B880F911D9695879597F9089597F904
:103A50009F6780E870E060E008959FEF80EC089534
:103A600000240A941616170618060906089500245D
:103A70000A9412161306140605060895092E0394D7
:103A8000000C11F4882352F0BB0F40F4BF2B11F44B
:103A900060FF04C06F5F7F4F8F4F9F4F089557FDAA
:103AA0009058440F551F59F05F3F71F04795880FAC
:103AB00097FB991F61F09F3F79F087950895121643
:103AC00013061406551FF2CF4695F1DF08C01616EF
:103AD00017061806991FF1CF8695710561050894A0
:103AE0000895E894BB2766277727CB0197F90895B7
:103AF000DB018F939F930E94C91DBF91AF91A29F3D
:103B0000800D911DA39F900DB29F900D11240895DB
:103B1000A1E21A2EAA1BBB1BFD010DC0AA1FBB1FD1
:103B2000EE1FFF1FA217B307E407F50720F0A21B43
:103B3000B30BE40BF50B661F771F881F991F1A94B0
:103B400069F760957095809590959B01AC01BD01DA
:103B5000CF010895052E97FB1EF400940E94C11D0D
:103B600057FD07D00E94881D07FC03D04EF40C942B
:103B7000C11D50954095309521953F4F4F4F5F4F58
:103B8000089590958095709561957F4F8F4F9F4FC9
:103B900008950E940B1EA59F900DB49F900DA49FA9
:103BA000800D911D112408952F923F924F925F92A4
:103BB0006F927F928F929F92AF92BF92CF92DF923D
:103BC000EF92FF920F931F93CF93DF93CDB7DEB7A2
:103BD000CA1BDB0B0FB6F894DEBF0FBECDBF099436
:103BE0002A88398848885F846E847D848C849B848D
:103BF000AA84B984C884DF80EE80FD800C811B819B
:103C0000AA81B981CE0FD11D0FB6F894DEBF0FBEC9
:103C1000CDBFED010895A29FB001B39FC001A39F46
:103C2000700D811D1124911DB29F700D811D1124F5
:103C3000911D089510E0CAE6D0E004C0FE010E9484
:0E3C4000A6172196CB36D107C9F7F894FFCF0F
:103C4E0046024F0200004704800001000000000001
:103C5E0000003D07230600000000D20A000000000D
:103C6E00D20A000000003B07000000003B070000E6
:103C7E000000A706230670064E066206EE0600003A
:103C8E0000003B07230600000000390B23068D0BB6
:103C9E00A50B200B380B5041525345204552524F25
:103CAE0052004E554C4C00636D640072657100708D
:103CBE00726D004765744669726D776172655665FF
:103CCE007273696F6E004765744150495665727321
:103CDE00696F6E00476574426174746572794368EA
:103CEE006172676500466F7277617264007370640B
:103CFE000064697374004261636B0053746F7000EB
:103D0E004C65667400616E676C6500526967687415
:103D1E00004D6F746F72506F776572006C656674CC
:103D2E0000726967687400536574426C7565746FD0
:103D3E006F74684E616D65006E616D6500536574DC
:103D4E00426C7565746F6F746850617373776F72C0
:103D5E0064007061737300536574426C7565746FA3
:103D6E006F74684261756472617465007273740079
:103D7E000D0A004F4B00554E4B4E4F574E20434FA2
:103D8E004D4D414E4400302E312E302E3133003108
:103D9E002E3500537461727420726F626F740074EA
:103DAE007275650022225C5C6208660C6E0A720DEA
:103DBE007409006E756C6C0066616C7365004E6103
:103DCE004E00496E66696E69747900652D00313258
:103DDE003030003100323430300032003438303080
:103DEE00003936303000313932303000333834302B
:103DFE003000353736303000370031313532303023
:103E0E0000380041540041542B4241554400415466
:103E1E002B50494E00313233003233340041542B93
:0E3E2E004E414D45003334350034353600002A
:00000001FF
